{
  "contractName": "ExchangePlatform",
  "abi": [
    {
      "inputs": [],
      "payable": false,
      "stateMutability": "nonpayable",
      "type": "constructor"
    },
    {
      "anonymous": false,
      "inputs": [
        {
          "indexed": false,
          "internalType": "bool",
          "name": "updated",
          "type": "bool"
        }
      ],
      "name": "ArrayUpdated",
      "type": "event"
    },
    {
      "anonymous": false,
      "inputs": [
        {
          "indexed": false,
          "internalType": "string",
          "name": "smartId",
          "type": "string"
        },
        {
          "indexed": false,
          "internalType": "address payable",
          "name": "owner",
          "type": "address"
        },
        {
          "indexed": false,
          "internalType": "uint256",
          "name": "microgrid",
          "type": "uint256"
        },
        {
          "indexed": false,
          "internalType": "uint256",
          "name": "energyReq",
          "type": "uint256"
        },
        {
          "indexed": false,
          "internalType": "bool",
          "name": "receiveStatus",
          "type": "bool"
        }
      ],
      "name": "BuyerChecked",
      "type": "event"
    },
    {
      "anonymous": false,
      "inputs": [
        {
          "indexed": false,
          "internalType": "string",
          "name": "smartId",
          "type": "string"
        },
        {
          "indexed": false,
          "internalType": "address payable",
          "name": "owner",
          "type": "address"
        },
        {
          "indexed": false,
          "internalType": "uint256",
          "name": "microgrid",
          "type": "uint256"
        },
        {
          "indexed": false,
          "internalType": "uint256",
          "name": "energyReq",
          "type": "uint256"
        },
        {
          "indexed": false,
          "internalType": "bool",
          "name": "receiveStatus",
          "type": "bool"
        }
      ],
      "name": "BuyerCreated",
      "type": "event"
    },
    {
      "anonymous": false,
      "inputs": [
        {
          "indexed": false,
          "internalType": "uint256",
          "name": "EPV",
          "type": "uint256"
        }
      ],
      "name": "EPVcalculated",
      "type": "event"
    },
    {
      "anonymous": false,
      "inputs": [
        {
          "indexed": false,
          "internalType": "uint256",
          "name": "price",
          "type": "uint256"
        }
      ],
      "name": "PriceCalculated",
      "type": "event"
    },
    {
      "anonymous": false,
      "inputs": [
        {
          "indexed": false,
          "internalType": "string",
          "name": "smartId",
          "type": "string"
        },
        {
          "indexed": false,
          "internalType": "address payable",
          "name": "owner",
          "type": "address"
        },
        {
          "indexed": false,
          "internalType": "uint256",
          "name": "microgrid",
          "type": "uint256"
        },
        {
          "indexed": false,
          "internalType": "uint256",
          "name": "energyReq",
          "type": "uint256"
        },
        {
          "indexed": false,
          "internalType": "bool",
          "name": "receiveStatus",
          "type": "bool"
        }
      ],
      "name": "RequestCompleted",
      "type": "event"
    },
    {
      "anonymous": false,
      "inputs": [
        {
          "indexed": false,
          "internalType": "string",
          "name": "smartId",
          "type": "string"
        },
        {
          "indexed": false,
          "internalType": "address payable",
          "name": "owner",
          "type": "address"
        },
        {
          "indexed": false,
          "internalType": "uint256",
          "name": "microgrid",
          "type": "uint256"
        },
        {
          "indexed": false,
          "internalType": "uint256",
          "name": "energyAmount",
          "type": "uint256"
        },
        {
          "indexed": false,
          "internalType": "bool",
          "name": "sellStatus",
          "type": "bool"
        }
      ],
      "name": "SellerChecked",
      "type": "event"
    },
    {
      "anonymous": false,
      "inputs": [
        {
          "indexed": false,
          "internalType": "bool",
          "name": "created",
          "type": "bool"
        }
      ],
      "name": "SellerCreated",
      "type": "event"
    },
    {
      "anonymous": false,
      "inputs": [
        {
          "indexed": false,
          "internalType": "uint256",
          "name": "rm",
          "type": "uint256"
        },
        {
          "indexed": false,
          "internalType": "bool",
          "name": "done",
          "type": "bool"
        }
      ],
      "name": "SellerRemoved",
      "type": "event"
    },
    {
      "anonymous": false,
      "inputs": [
        {
          "indexed": false,
          "internalType": "uint256",
          "name": "sup",
          "type": "uint256"
        },
        {
          "indexed": false,
          "internalType": "bool",
          "name": "done",
          "type": "bool"
        }
      ],
      "name": "SellerUpdated",
      "type": "event"
    },
    {
      "anonymous": false,
      "inputs": [
        {
          "indexed": false,
          "internalType": "bool",
          "name": "allow",
          "type": "bool"
        }
      ],
      "name": "Time",
      "type": "event"
    },
    {
      "anonymous": false,
      "inputs": [
        {
          "indexed": false,
          "internalType": "uint256",
          "name": "TED",
          "type": "uint256"
        },
        {
          "indexed": false,
          "internalType": "uint256",
          "name": "TES",
          "type": "uint256"
        },
        {
          "indexed": false,
          "internalType": "uint256",
          "name": "demand",
          "type": "uint256"
        },
        {
          "indexed": false,
          "internalType": "uint256",
          "name": "supply",
          "type": "uint256"
        }
      ],
      "name": "Updated",
      "type": "event"
    },
    {
      "constant": true,
      "inputs": [],
      "name": "TED",
      "outputs": [
        {
          "internalType": "uint256",
          "name": "",
          "type": "uint256"
        }
      ],
      "payable": false,
      "stateMutability": "view",
      "type": "function"
    },
    {
      "constant": true,
      "inputs": [],
      "name": "TES",
      "outputs": [
        {
          "internalType": "uint256",
          "name": "",
          "type": "uint256"
        }
      ],
      "payable": false,
      "stateMutability": "view",
      "type": "function"
    },
    {
      "constant": true,
      "inputs": [],
      "name": "allow",
      "outputs": [
        {
          "internalType": "bool",
          "name": "",
          "type": "bool"
        }
      ],
      "payable": false,
      "stateMutability": "view",
      "type": "function"
    },
    {
      "constant": true,
      "inputs": [
        {
          "internalType": "string",
          "name": "",
          "type": "string"
        }
      ],
      "name": "buyersMap",
      "outputs": [
        {
          "internalType": "string",
          "name": "smartId",
          "type": "string"
        },
        {
          "internalType": "address payable",
          "name": "owner",
          "type": "address"
        },
        {
          "internalType": "uint256",
          "name": "microgrid",
          "type": "uint256"
        },
        {
          "internalType": "uint256",
          "name": "energyReq",
          "type": "uint256"
        },
        {
          "internalType": "bool",
          "name": "receiveStatus",
          "type": "bool"
        }
      ],
      "payable": false,
      "stateMutability": "view",
      "type": "function"
    },
    {
      "constant": true,
      "inputs": [],
      "name": "demand",
      "outputs": [
        {
          "internalType": "uint256",
          "name": "",
          "type": "uint256"
        }
      ],
      "payable": false,
      "stateMutability": "view",
      "type": "function"
    },
    {
      "constant": true,
      "inputs": [
        {
          "internalType": "uint256",
          "name": "",
          "type": "uint256"
        }
      ],
      "name": "grid1",
      "outputs": [
        {
          "internalType": "string",
          "name": "smartId",
          "type": "string"
        },
        {
          "internalType": "address payable",
          "name": "owner",
          "type": "address"
        },
        {
          "internalType": "uint256",
          "name": "microgrid",
          "type": "uint256"
        },
        {
          "internalType": "uint256",
          "name": "energyAmount",
          "type": "uint256"
        },
        {
          "internalType": "bool",
          "name": "sellStatus",
          "type": "bool"
        }
      ],
      "payable": false,
      "stateMutability": "view",
      "type": "function"
    },
    {
      "constant": true,
      "inputs": [
        {
          "internalType": "uint256",
          "name": "",
          "type": "uint256"
        }
      ],
      "name": "grid2",
      "outputs": [
        {
          "internalType": "string",
          "name": "smartId",
          "type": "string"
        },
        {
          "internalType": "address payable",
          "name": "owner",
          "type": "address"
        },
        {
          "internalType": "uint256",
          "name": "microgrid",
          "type": "uint256"
        },
        {
          "internalType": "uint256",
          "name": "energyAmount",
          "type": "uint256"
        },
        {
          "internalType": "bool",
          "name": "sellStatus",
          "type": "bool"
        }
      ],
      "payable": false,
      "stateMutability": "view",
      "type": "function"
    },
    {
      "constant": true,
      "inputs": [
        {
          "internalType": "uint256",
          "name": "",
          "type": "uint256"
        }
      ],
      "name": "grid3",
      "outputs": [
        {
          "internalType": "string",
          "name": "smartId",
          "type": "string"
        },
        {
          "internalType": "address payable",
          "name": "owner",
          "type": "address"
        },
        {
          "internalType": "uint256",
          "name": "microgrid",
          "type": "uint256"
        },
        {
          "internalType": "uint256",
          "name": "energyAmount",
          "type": "uint256"
        },
        {
          "internalType": "bool",
          "name": "sellStatus",
          "type": "bool"
        }
      ],
      "payable": false,
      "stateMutability": "view",
      "type": "function"
    },
    {
      "constant": true,
      "inputs": [
        {
          "internalType": "uint256",
          "name": "",
          "type": "uint256"
        },
        {
          "internalType": "uint256",
          "name": "",
          "type": "uint256"
        }
      ],
      "name": "gridMap",
      "outputs": [
        {
          "internalType": "string",
          "name": "smartId",
          "type": "string"
        },
        {
          "internalType": "address payable",
          "name": "owner",
          "type": "address"
        },
        {
          "internalType": "uint256",
          "name": "microgrid",
          "type": "uint256"
        },
        {
          "internalType": "uint256",
          "name": "energyAmount",
          "type": "uint256"
        },
        {
          "internalType": "bool",
          "name": "sellStatus",
          "type": "bool"
        }
      ],
      "payable": false,
      "stateMutability": "view",
      "type": "function"
    },
    {
      "constant": true,
      "inputs": [],
      "name": "name",
      "outputs": [
        {
          "internalType": "string",
          "name": "",
          "type": "string"
        }
      ],
      "payable": false,
      "stateMutability": "view",
      "type": "function"
    },
    {
      "constant": true,
      "inputs": [],
      "name": "pay",
      "outputs": [
        {
          "internalType": "uint256",
          "name": "",
          "type": "uint256"
        }
      ],
      "payable": false,
      "stateMutability": "view",
      "type": "function"
    },
    {
      "constant": true,
      "inputs": [
        {
          "internalType": "uint256",
          "name": "",
          "type": "uint256"
        }
      ],
      "name": "sellersArr",
      "outputs": [
        {
          "internalType": "string",
          "name": "smartId",
          "type": "string"
        },
        {
          "internalType": "address payable",
          "name": "owner",
          "type": "address"
        },
        {
          "internalType": "uint256",
          "name": "microgrid",
          "type": "uint256"
        },
        {
          "internalType": "uint256",
          "name": "energyAmount",
          "type": "uint256"
        },
        {
          "internalType": "bool",
          "name": "sellStatus",
          "type": "bool"
        }
      ],
      "payable": false,
      "stateMutability": "view",
      "type": "function"
    },
    {
      "constant": true,
      "inputs": [
        {
          "internalType": "string",
          "name": "",
          "type": "string"
        }
      ],
      "name": "sellersMap",
      "outputs": [
        {
          "internalType": "string",
          "name": "smartId",
          "type": "string"
        },
        {
          "internalType": "address payable",
          "name": "owner",
          "type": "address"
        },
        {
          "internalType": "uint256",
          "name": "microgrid",
          "type": "uint256"
        },
        {
          "internalType": "uint256",
          "name": "energyAmount",
          "type": "uint256"
        },
        {
          "internalType": "bool",
          "name": "sellStatus",
          "type": "bool"
        }
      ],
      "payable": false,
      "stateMutability": "view",
      "type": "function"
    },
    {
      "constant": true,
      "inputs": [],
      "name": "supply",
      "outputs": [
        {
          "internalType": "uint256",
          "name": "",
          "type": "uint256"
        }
      ],
      "payable": false,
      "stateMutability": "view",
      "type": "function"
    },
    {
      "constant": false,
      "inputs": [
        {
          "internalType": "uint256",
          "name": "_time",
          "type": "uint256"
        }
      ],
      "name": "checkTime",
      "outputs": [],
      "payable": false,
      "stateMutability": "nonpayable",
      "type": "function"
    },
    {
      "constant": false,
      "inputs": [
        {
          "internalType": "string",
          "name": "_smartId",
          "type": "string"
        },
        {
          "internalType": "uint256",
          "name": "_energyDealt",
          "type": "uint256"
        }
      ],
      "name": "update",
      "outputs": [],
      "payable": false,
      "stateMutability": "nonpayable",
      "type": "function"
    },
    {
      "constant": false,
      "inputs": [
        {
          "internalType": "string",
          "name": "_smartId",
          "type": "string"
        },
        {
          "internalType": "uint256",
          "name": "_microgrid",
          "type": "uint256"
        },
        {
          "internalType": "uint256",
          "name": "_energyAmount",
          "type": "uint256"
        }
      ],
      "name": "registerSeller",
      "outputs": [],
      "payable": false,
      "stateMutability": "nonpayable",
      "type": "function"
    },
    {
      "constant": false,
      "inputs": [
        {
          "internalType": "string",
          "name": "_smartId",
          "type": "string"
        },
        {
          "internalType": "uint256",
          "name": "_microgrid",
          "type": "uint256"
        },
        {
          "internalType": "uint256",
          "name": "_energyAmount",
          "type": "uint256"
        }
      ],
      "name": "checkSeller",
      "outputs": [],
      "payable": false,
      "stateMutability": "nonpayable",
      "type": "function"
    },
    {
      "constant": false,
      "inputs": [
        {
          "internalType": "string",
          "name": "_smartId",
          "type": "string"
        },
        {
          "internalType": "uint256",
          "name": "_grid",
          "type": "uint256"
        },
        {
          "internalType": "uint256",
          "name": "_energyAmount",
          "type": "uint256"
        }
      ],
      "name": "updateArr",
      "outputs": [],
      "payable": false,
      "stateMutability": "nonpayable",
      "type": "function"
    },
    {
      "constant": false,
      "inputs": [
        {
          "internalType": "string",
          "name": "_smartId",
          "type": "string"
        },
        {
          "internalType": "uint256",
          "name": "_microgrid",
          "type": "uint256"
        },
        {
          "internalType": "uint256",
          "name": "_energyReq",
          "type": "uint256"
        }
      ],
      "name": "registerBuyer",
      "outputs": [],
      "payable": false,
      "stateMutability": "nonpayable",
      "type": "function"
    },
    {
      "constant": false,
      "inputs": [
        {
          "internalType": "string",
          "name": "_smartId",
          "type": "string"
        },
        {
          "internalType": "uint256",
          "name": "_microgrid",
          "type": "uint256"
        },
        {
          "internalType": "uint256",
          "name": "_energyReq",
          "type": "uint256"
        }
      ],
      "name": "checkBuyer",
      "outputs": [],
      "payable": false,
      "stateMutability": "nonpayable",
      "type": "function"
    },
    {
      "constant": false,
      "inputs": [
        {
          "internalType": "string",
          "name": "_smartId",
          "type": "string"
        },
        {
          "internalType": "uint256",
          "name": "_energyNeed",
          "type": "uint256"
        }
      ],
      "name": "buyRequest",
      "outputs": [],
      "payable": true,
      "stateMutability": "payable",
      "type": "function"
    },
    {
      "constant": false,
      "inputs": [],
      "name": "payment",
      "outputs": [],
      "payable": true,
      "stateMutability": "payable",
      "type": "function"
    },
    {
      "constant": false,
      "inputs": [],
      "name": "basePriceCalculation",
      "outputs": [
        {
          "internalType": "uint256",
          "name": "",
          "type": "uint256"
        }
      ],
      "payable": false,
      "stateMutability": "nonpayable",
      "type": "function"
    },
    {
      "constant": false,
      "inputs": [
        {
          "internalType": "string",
          "name": "_smartId",
          "type": "string"
        },
        {
          "internalType": "uint256",
          "name": "_x",
          "type": "uint256"
        }
      ],
      "name": "updateSeller",
      "outputs": [],
      "payable": false,
      "stateMutability": "nonpayable",
      "type": "function"
    },
    {
      "constant": false,
      "inputs": [
        {
          "internalType": "string",
          "name": "_smartId",
          "type": "string"
        },
        {
          "internalType": "uint256",
          "name": "_x",
          "type": "uint256"
        }
      ],
      "name": "removeSeller",
      "outputs": [],
      "payable": false,
      "stateMutability": "nonpayable",
      "type": "function"
    }
  ],
  "bytecode": "0x6080604052600060085560006009556000600a556000600b556000600c556000600d60006101000a81548160ff0219169083151502179055506000600d60016101000a81548173ffffffffffffffffffffffffffffffffffffffff021916908373ffffffffffffffffffffffffffffffffffffffff1602179055503480156200008757600080fd5b506040518060400160405280601781526020017f456e657267792074726164696e6720506c6174666f726d00000000000000000081525060009080519060200190620000d592919062000151565b5060056003600060018152602001908152602001600020908054620000fc929190620001d8565b506006600360006002815260200190815260200160002090805462000123929190620001d8565b50600760036000600381526020019081526020016000209080546200014a929190620001d8565b5062000488565b828054600181600116156101000203166002900490600052602060002090601f016020900481019282601f106200019457805160ff1916838001178555620001c5565b82800160010185558215620001c5579182015b82811115620001c4578251825591602001919060010190620001a7565b5b509050620001d4919062000307565b5090565b828054828255906000526020600020906005028101928215620002f45760005260206000209160050282015b82811115620002f357828260008201816000019080546001816001161561010002031660029004620002389291906200032f565b506001820160009054906101000a900473ffffffffffffffffffffffffffffffffffffffff168160010160006101000a81548173ffffffffffffffffffffffffffffffffffffffff021916908373ffffffffffffffffffffffffffffffffffffffff16021790555060028201548160020155600382015481600301556004820160009054906101000a900460ff168160040160006101000a81548160ff02191690831515021790555050509160050191906005019062000204565b5b509050620003039190620003bd565b5090565b6200032c91905b80821115620003285760008160009055506001016200030e565b5090565b90565b828054600181600116156101000203166002900490600052602060002090601f016020900481019282601f106200036a5780548555620003aa565b82800160010185558215620003aa57600052602060002091601f016020900482015b82811115620003a95782548255916001019190600101906200038c565b5b509050620003b9919062000307565b5090565b6200043991905b80821115620004355760008082016000620003e091906200043c565b6001820160006101000a81549073ffffffffffffffffffffffffffffffffffffffff0219169055600282016000905560038201600090556004820160006101000a81549060ff021916905550600501620003c4565b5090565b90565b50805460018160011615610100020316600290046000825580601f1062000464575062000485565b601f01602090049060005260206000209081019062000484919062000307565b5b50565b615ff780620004986000396000f3fe6080604052600436106101815760003560e01c806382d6bb10116100d1578063b6d5d7ff1161008a578063c97616e711610064578063c97616e714610fdb578063e91c02c2146110b7578063f98b91cb14611189578063f9e826f61461126557610181565b8063b6d5d7ff14610c68578063b802a36714610d72578063bb8273d414610e4e57610181565b806382d6bb101461090757806389447f83146109325780639647df9714610a0e5780639766aae414610a395780639df7585714610b39578063b1b3d3f614610c3957610181565b806342f6487a1161013e5780634ee5c2ee116101185780634ee5c2ee1461061e57806361841cd6146106f05780636ca915af1461072b578063809b0f991461080757610181565b806342f6487a146104e95780634d20d8bc146104f35780634d8a6b66146105f357610181565b8063047fc9aa1461018657806306fdde03146101b15780631b9265b814610241578063252c7cb91461026c5780633dd852321461033157806341308ce01461035c575b600080fd5b34801561019257600080fd5b5061019b611337565b6040518082815260200191505060405180910390f35b3480156101bd57600080fd5b506101c661133d565b6040518080602001828103825283818151815260200191508051906020019080838360005b838110156102065780820151818401526020810190506101eb565b50505050905090810190601f1680156102335780820380516001836020036101000a031916815260200191505b509250505060405180910390f35b34801561024d57600080fd5b506102566113db565b6040518082815260200191505060405180910390f35b61032f6004803603604081101561028257600080fd5b810190808035906020019064010000000081111561029f57600080fd5b8201836020820111156102b157600080fd5b803590602001918460018302840111640100000000831117156102d357600080fd5b91908080601f016020809104026020016040519081016040528093929190818152602001838380828437600081840152601f19601f820116905080830192505050505050509192919290803590602001909291905050506113e1565b005b34801561033d57600080fd5b50610346612d7b565b6040518082815260200191505060405180910390f35b34801561036857600080fd5b506104226004803603602081101561037f57600080fd5b810190808035906020019064010000000081111561039c57600080fd5b8201836020820111156103ae57600080fd5b803590602001918460018302840111640100000000831117156103d057600080fd5b91908080601f016020809104026020016040519081016040528093929190818152602001838380828437600081840152601f19601f820116905080830192505050505050509192919290505050612e08565b60405180806020018673ffffffffffffffffffffffffffffffffffffffff1673ffffffffffffffffffffffffffffffffffffffff16815260200185815260200184815260200183151515158152602001828103825287818151815260200191508051906020019080838360005b838110156104aa57808201518184015260208101905061048f565b50505050905090810190601f1680156104d75780820380516001836020036101000a031916815260200191505b50965050505050505060405180910390f35b6104f1612f19565b005b3480156104ff57600080fd5b5061052c6004803603602081101561051657600080fd5b8101908080359060200190929190505050612fe9565b60405180806020018673ffffffffffffffffffffffffffffffffffffffff1673ffffffffffffffffffffffffffffffffffffffff16815260200185815260200184815260200183151515158152602001828103825287818151815260200191508051906020019080838360005b838110156105b4578082015181840152602081019050610599565b50505050905090810190601f1680156105e15780820380516001836020036101000a031916815260200191505b50965050505050505060405180910390f35b3480156105ff57600080fd5b506106086130f1565b6040518082815260200191505060405180910390f35b34801561062a57600080fd5b506106ee6004803603604081101561064157600080fd5b810190808035906020019064010000000081111561065e57600080fd5b82018360208201111561067057600080fd5b8035906020019184600183028401116401000000008311171561069257600080fd5b91908080601f016020809104026020016040519081016040528093929190818152602001838380828437600081840152601f19601f820116905080830192505050505050509192919290803590602001909291905050506130f7565b005b3480156106fc57600080fd5b506107296004803603602081101561071357600080fd5b8101908080359060200190929190505050613486565b005b34801561073757600080fd5b506108056004803603606081101561074e57600080fd5b810190808035906020019064010000000081111561076b57600080fd5b82018360208201111561077d57600080fd5b8035906020019184600183028401116401000000008311171561079f57600080fd5b91908080601f016020809104026020016040519081016040528093929190818152602001838380828437600081840152601f19601f8201169050808301925050505050505091929192908035906020019092919080359060200190929190505050613538565b005b34801561081357600080fd5b506108406004803603602081101561082a57600080fd5b8101908080359060200190929190505050613a30565b60405180806020018673ffffffffffffffffffffffffffffffffffffffff1673ffffffffffffffffffffffffffffffffffffffff16815260200185815260200184815260200183151515158152602001828103825287818151815260200191508051906020019080838360005b838110156108c85780820151818401526020810190506108ad565b50505050905090810190601f1680156108f55780820380516001836020036101000a031916815260200191505b50965050505050505060405180910390f35b34801561091357600080fd5b5061091c613b38565b6040518082815260200191505060405180910390f35b34801561093e57600080fd5b50610a0c6004803603606081101561095557600080fd5b810190808035906020019064010000000081111561097257600080fd5b82018360208201111561098457600080fd5b803590602001918460018302840111640100000000831117156109a657600080fd5b91908080601f016020809104026020016040519081016040528093929190818152602001838380828437600081840152601f19601f8201169050808301925050505050505091929192908035906020019092919080359060200190929190505050613b3e565b005b348015610a1a57600080fd5b50610a23614077565b6040518082815260200191505060405180910390f35b348015610a4557600080fd5b50610a7260048036036020811015610a5c57600080fd5b810190808035906020019092919050505061407d565b60405180806020018673ffffffffffffffffffffffffffffffffffffffff1673ffffffffffffffffffffffffffffffffffffffff16815260200185815260200184815260200183151515158152602001828103825287818151815260200191508051906020019080838360005b83811015610afa578082015181840152602081019050610adf565b50505050905090810190601f168015610b275780820380516001836020036101000a031916815260200191505b50965050505050505060405180910390f35b348015610b4557600080fd5b50610b7260048036036020811015610b5c57600080fd5b8101908080359060200190929190505050614185565b60405180806020018673ffffffffffffffffffffffffffffffffffffffff1673ffffffffffffffffffffffffffffffffffffffff16815260200185815260200184815260200183151515158152602001828103825287818151815260200191508051906020019080838360005b83811015610bfa578082015181840152602081019050610bdf565b50505050905090810190601f168015610c275780820380516001836020036101000a031916815260200191505b50965050505050505060405180910390f35b348015610c4557600080fd5b50610c4e61428d565b604051808215151515815260200191505060405180910390f35b348015610c7457600080fd5b50610cab60048036036040811015610c8b57600080fd5b8101908080359060200190929190803590602001909291905050506142a0565b60405180806020018673ffffffffffffffffffffffffffffffffffffffff1673ffffffffffffffffffffffffffffffffffffffff16815260200185815260200184815260200183151515158152602001828103825287818151815260200191508051906020019080838360005b83811015610d33578082015181840152602081019050610d18565b50505050905090810190601f168015610d605780820380516001836020036101000a031916815260200191505b50965050505050505060405180910390f35b348015610d7e57600080fd5b50610e4c60048036036060811015610d9557600080fd5b8101908080359060200190640100000000811115610db257600080fd5b820183602082011115610dc457600080fd5b80359060200191846001830284011164010000000083111715610de657600080fd5b91908080601f016020809104026020016040519081016040528093929190818152602001838380828437600081840152601f19601f82011690508083019250505050505050919291929080359060200190929190803590602001909291905050506143b5565b005b348015610e5a57600080fd5b50610f1460048036036020811015610e7157600080fd5b8101908080359060200190640100000000811115610e8e57600080fd5b820183602082011115610ea057600080fd5b80359060200191846001830284011164010000000083111715610ec257600080fd5b91908080601f016020809104026020016040519081016040528093929190818152602001838380828437600081840152601f19601f820116905080830192505050505050509192919290505050614b39565b60405180806020018673ffffffffffffffffffffffffffffffffffffffff1673ffffffffffffffffffffffffffffffffffffffff16815260200185815260200184815260200183151515158152602001828103825287818151815260200191508051906020019080838360005b83811015610f9c578082015181840152602081019050610f81565b50505050905090810190601f168015610fc95780820380516001836020036101000a031916815260200191505b50965050505050505060405180910390f35b348015610fe757600080fd5b506110b560048036036060811015610ffe57600080fd5b810190808035906020019064010000000081111561101b57600080fd5b82018360208201111561102d57600080fd5b8035906020019184600183028401116401000000008311171561104f57600080fd5b91908080601f016020809104026020016040519081016040528093929190818152602001838380828437600081840152601f19601f8201169050808301925050505050505091929192908035906020019092919080359060200190929190505050614c4a565b005b3480156110c357600080fd5b50611187600480360360408110156110da57600080fd5b81019080803590602001906401000000008111156110f757600080fd5b82018360208201111561110957600080fd5b8035906020019184600183028401116401000000008311171561112b57600080fd5b91908080601f016020809104026020016040519081016040528093929190818152602001838380828437600081840152601f19601f82011690508083019250505050505050919291929080359060200190929190505050614e16565b005b34801561119557600080fd5b50611263600480360360608110156111ac57600080fd5b81019080803590602001906401000000008111156111c957600080fd5b8201836020820111156111db57600080fd5b803590602001918460018302840111640100000000831117156111fd57600080fd5b91908080601f016020809104026020016040519081016040528093929190818152602001838380828437600081840152601f19601f8201169050808301925050505050505091929192908035906020019092919080359060200190929190505050615635565b005b34801561127157600080fd5b506113356004803603604081101561128857600080fd5b81019080803590602001906401000000008111156112a557600080fd5b8201836020820111156112b757600080fd5b803590602001918460018302840111640100000000831117156112d957600080fd5b91908080601f016020809104026020016040519081016040528093929190818152602001838380828437600081840152601f19601f8201169050808301925050505050505091929192908035906020019092919050505061580e565b005b600b5481565b60008054600181600116156101000203166002900480601f0160208091040260200160405190810160405280929190818152602001828054600181600116156101000203166002900480156113d35780601f106113a8576101008083540402835291602001916113d3565b820191906000526020600020905b8154815290600101906020018083116113b657829003601f168201915b505050505081565b600c5481565b60001515600d60009054906101000a900460ff1615151461140157600080fd5b6002826040518082805190602001908083835b602083106114375780518252602082019150602081019050602083039250611414565b6001836020036101000a038019825116818451168082178552505050505050905001915050908152602001604051809103902060010160009054906101000a900473ffffffffffffffffffffffffffffffffffffffff1673ffffffffffffffffffffffffffffffffffffffff163373ffffffffffffffffffffffffffffffffffffffff16146114c557600080fd5b6114cd615e07565b6002836040518082805190602001908083835b6020831061150357805182526020820191506020810190506020830392506114e0565b6001836020036101000a03801982511681845116808217855250505050505090500191505090815260200160405180910390206040518060a0016040529081600082018054600181600116156101000203166002900480601f0160208091040260200160405190810160405280929190818152602001828054600181600116156101000203166002900480156115da5780601f106115af576101008083540402835291602001916115da565b820191906000526020600020905b8154815290600101906020018083116115bd57829003601f168201915b505050505081526020016001820160009054906101000a900473ffffffffffffffffffffffffffffffffffffffff1673ffffffffffffffffffffffffffffffffffffffff1673ffffffffffffffffffffffffffffffffffffffff16815260200160028201548152602001600382015481526020016004820160009054906101000a900460ff16151515158152505090506000809050600080905060008090506000809050611686612d7b565b925060008090505b6003600087604001518152602001908152602001600020805490508110156120cd576000151582151514156120c05786600360008860400151815260200190815260200160002082815481106116e057fe5b90600052602060002090600502016003015410611c9157600115156003600088604001518152602001908152602001600020828154811061171d57fe5b906000526020600020906005020160040160009054906101000a900460ff1615151415611c8b576509fa26f40400848802029450866003600088604001518152602001908152602001600020828154811061177457fe5b9060005260206000209060050201600301600082825403925050819055506000600360008860400151815260200190815260200160002082815481106117b657fe5b9060005260206000209060050201600301541415611a60576000600360008860400151815260200190815260200160002082815481106117f257fe5b906000526020600020906005020160040160006101000a81548160ff021916908315150217905550600060016003600089604001518152602001908152602001600020838154811061184057fe5b906000526020600020906005020160000160405180828054600181600116156101000203166002900480156118ac5780601f1061188a5761010080835404028352918201916118ac565b820191906000526020600020905b815481529060010190602001808311611898575b5050915050908152602001604051809103902060040160006101000a81548160ff02191690831515021790555060006001600360008960400151815260200190815260200160002083815481106118ff57fe5b9060005260206000209060050201600001604051808280546001816001161561010002031660029004801561196b5780601f1061194957610100808354040283529182019161196b565b820191906000526020600020905b815481529060010190602001808311611957575b5050915050908152602001604051809103902060030181905550611a5b600360008860400151815260200190815260200160002082815481106119aa57fe5b90600052602060002090600502016000018054600181600116156101000203166002900480601f016020809104026020016040519081016040528092919081815260200182805460018160011615610100020316600290048015611a4f5780601f10611a2457610100808354040283529160200191611a4f565b820191906000526020600020905b815481529060010190602001808311611a3257829003601f168201915b50505050506001614e16565b611beb565b86600160036000896040015181526020019081526020016000208381548110611a8557fe5b90600052602060002090600502016000016040518082805460018160011615610100020316600290048015611af15780601f10611acf576101008083540402835291820191611af1565b820191906000526020600020905b815481529060010190602001808311611add575b5050915050908152602001604051809103902060030160008282540392505081905550611bea60036000886040015181526020019081526020016000208281548110611b3957fe5b90600052602060002090600502016000018054600181600116156101000203166002900480601f016020809104026020016040519081016040528092919081815260200182805460018160011615610100020316600290048015611bde5780601f10611bb357610100808354040283529160200191611bde565b820191906000526020600020905b815481529060010190602001808311611bc157829003601f168201915b5050505050600161580e565b5b86925060036000876040015181526020019081526020016000208181548110611c1057fe5b906000526020600020906005020160010160009054906101000a900473ffffffffffffffffffffffffffffffffffffffff16600d60016101000a81548173ffffffffffffffffffffffffffffffffffffffff021916908373ffffffffffffffffffffffffffffffffffffffff16021790555060019150611c8c565b5b6120bf565b6001151560036000886040015181526020019081526020016000208281548110611cb757fe5b906000526020600020906005020160040160009054906101000a900460ff16151514156120b9576509fa26f404008460036000896040015181526020019081526020016000208381548110611d0857fe5b9060005260206000209060050201600301540202945060036000876040015181526020019081526020016000208181548110611d4057fe5b90600052602060002090600502016003015487039250600060036000886040015181526020019081526020016000208281548110611d7a57fe5b906000526020600020906005020160030181905550600060036000886040015181526020019081526020016000208281548110611db357fe5b906000526020600020906005020160040160006101000a81548160ff0219169083151502179055506000600160036000896040015181526020019081526020016000208381548110611e0157fe5b90600052602060002090600502016000016040518082805460018160011615610100020316600290048015611e6d5780601f10611e4b576101008083540402835291820191611e6d565b820191906000526020600020905b815481529060010190602001808311611e59575b5050915050908152602001604051809103902060040160006101000a81548160ff0219169083151502179055506000600160036000896040015181526020019081526020016000208381548110611ec057fe5b90600052602060002090600502016000016040518082805460018160011615610100020316600290048015611f2c5780601f10611f0a576101008083540402835291820191611f2c565b820191906000526020600020905b815481529060010190602001808311611f18575b505091505090815260200160405180910390206003018190555061201c60036000886040015181526020019081526020016000208281548110611f6b57fe5b90600052602060002090600502016000018054600181600116156101000203166002900480601f0160208091040260200160405190810160405280929190818152602001828054600181600116156101000203166002900480156120105780601f10611fe557610100808354040283529160200191612010565b820191906000526020600020905b815481529060010190602001808311611ff357829003601f168201915b5050505050600161580e565b600191506003600087604001518152602001908152602001600020818154811061204257fe5b906000526020600020906005020160010160009054906101000a900473ffffffffffffffffffffffffffffffffffffffff16600d60016101000a81548173ffffffffffffffffffffffffffffffffffffffff021916908373ffffffffffffffffffffffffffffffffffffffff1602179055506120be565b600091505b5b5b808060010191505061168e565b5060008090505b600480549050811161298d57600015158215151415612980578560400151600482815481106120ff57fe5b9060005260206000209060050201600201541461297f57866004828154811061212457fe5b9060005260206000209060050201600301541061260a57600115156004828154811061214c57fe5b906000526020600020906005020160040160009054906101000a900460ff1615151415612600576509fa26f40400848860020202029450866004828154811061219157fe5b9060005260206000209060050201600301600082825403925050819055506000600482815481106121be57fe5b9060005260206000209060050201600301541415612414576000600482815481106121e557fe5b906000526020600020906005020160040160006101000a81548160ff021916908315150217905550600060016004838154811061221e57fe5b9060005260206000209060050201600001604051808280546001816001161561010002031660029004801561228a5780601f1061226857610100808354040283529182019161228a565b820191906000526020600020905b815481529060010190602001808311612276575b5050915050908152602001604051809103902060040160006101000a81548160ff02191690831515021790555060006001600483815481106122c857fe5b906000526020600020906005020160000160405180828054600181600116156101000203166002900480156123345780601f10612312576101008083540402835291820191612334565b820191906000526020600020905b815481529060010190602001808311612320575b505091505090815260200160405180910390206003018190555061240f6004828154811061235e57fe5b90600052602060002090600502016000018054600181600116156101000203166002900480601f0160208091040260200160405190810160405280929190818152602001828054600181600116156101000203166002900480156124035780601f106123d857610100808354040283529160200191612403565b820191906000526020600020905b8154815290600101906020018083116123e657829003601f168201915b50505050506002614e16565b612575565b8660016004838154811061242457fe5b906000526020600020906005020160000160405180828054600181600116156101000203166002900480156124905780601f1061246e576101008083540402835291820191612490565b820191906000526020600020905b81548152906001019060200180831161247c575b5050915050908152602001604051809103902060030160008282540392505081905550612574600482815481106124c357fe5b90600052602060002090600502016000018054600181600116156101000203166002900480601f0160208091040260200160405190810160405280929190818152602001828054600181600116156101000203166002900480156125685780601f1061253d57610100808354040283529160200191612568565b820191906000526020600020905b81548152906001019060200180831161254b57829003601f168201915b5050505050600261580e565b5b8692506004818154811061258557fe5b906000526020600020906005020160010160009054906101000a900473ffffffffffffffffffffffffffffffffffffffff16600d60016101000a81548173ffffffffffffffffffffffffffffffffffffffff021916908373ffffffffffffffffffffffffffffffffffffffff16021790555060019150612605565b600091505b61297e565b600115156004828154811061261b57fe5b906000526020600020906005020160040160009054906101000a900460ff1615151415612978576509fa26f40400846004838154811061265757fe5b906000526020600020906005020160030154600202020294506004818154811061267d57fe5b906000526020600020906005020160030154870392506000600482815481106126a257fe5b9060005260206000209060050201600301819055506000600482815481106126c657fe5b906000526020600020906005020160040160006101000a81548160ff02191690831515021790555060006001600483815481106126ff57fe5b9060005260206000209060050201600001604051808280546001816001161561010002031660029004801561276b5780601f1061274957610100808354040283529182019161276b565b820191906000526020600020905b815481529060010190602001808311612757575b5050915050908152602001604051809103902060040160006101000a81548160ff02191690831515021790555060006001600483815481106127a957fe5b906000526020600020906005020160000160405180828054600181600116156101000203166002900480156128155780601f106127f3576101008083540402835291820191612815565b820191906000526020600020905b815481529060010190602001808311612801575b50509150509081526020016040518091039020600301819055506128f06004828154811061283f57fe5b90600052602060002090600502016000018054600181600116156101000203166002900480601f0160208091040260200160405190810160405280929190818152602001828054600181600116156101000203166002900480156128e45780601f106128b9576101008083540402835291602001916128e4565b820191906000526020600020905b8154815290600101906020018083116128c757829003601f168201915b5050505050600261580e565b600481815481106128fd57fe5b906000526020600020906005020160010160009054906101000a900473ffffffffffffffffffffffffffffffffffffffff16600d60016101000a81548173ffffffffffffffffffffffffffffffffffffffff021916908373ffffffffffffffffffffffffffffffffffffffff1602179055506001915061297d565b600091505b5b5b5b80806001019150506120d4565b508186036002886040518082805190602001908083835b602083106129c757805182526020820191506020810190506020830392506129a4565b6001836020036101000a03801982511681845116808217855250505050505090500191505090815260200160405180910390206003018190555060006002886040518082805190602001908083835b60208310612a395780518252602082019150602081019050602083039250612a16565b6001836020036101000a03801982511681845116808217855250505050505090500191505090815260200160405180910390206003015414612afe5760006002886040518082805190602001908083835b60208310612aad5780518252602082019150602081019050602083039250612a8a565b6001836020036101000a038019825116818451168082178552505050505050905001915050908152602001604051809103902060040160006101000a81548160ff0219169083151502179055612b83565b60016002886040518082805190602001908083835b60208310612b365780518252602082019150602081019050602083039250612b13565b6001836020036101000a038019825116818451168082178552505050505050905001915050908152602001604051809103902060040160006101000a81548160ff02191690831515021790555b50612b8e87836130f7565b83600c819055507f6b2e0de152c775ca7ba971dedfd8f9ede5e85bbfd2d023a3a0b49e1fc548fd7c856000015133876040015160028b6040518082805190602001908083835b60208310612bf75780518252602082019150602081019050602083039250612bd4565b6001836020036101000a03801982511681845116808217855250505050505090500191505090815260200160405180910390206003015460028a600001516040518082805190602001908083835b60208310612c685780518252602082019150602081019050602083039250612c45565b6001836020036101000a038019825116818451168082178552505050505050905001915050908152602001604051809103902060040160009054906101000a900460ff1660405180806020018673ffffffffffffffffffffffffffffffffffffffff1673ffffffffffffffffffffffffffffffffffffffff16815260200185815260200184815260200183151515158152602001828103825287818151815260200191508051906020019080838360005b83811015612d34578082015181840152602081019050612d19565b50505050905090810190601f168015612d615780820380516001836020036101000a031916815260200191505b50965050505050505060405180910390a150505050505050565b60008060009050600080905060006006905060085460095481612d9a57fe5b04925060018310612dc457828181612dae57fe5b0491506000821415612dbf57600191505b612dc8565b8091505b7f1eb334ee2a0c83751ac599a058b8a63be2104fa534e79d2147dc28945575c285826040518082815260200191505060405180910390a181935050505090565b600281805160208101820180518482526020830160208501208183528095505050505050600091509050806000018054600181600116156101000203166002900480601f016020809104026020016040519081016040528092919081815260200182805460018160011615610100020316600290048015612eca5780601f10612e9f57610100808354040283529160200191612eca565b820191906000526020600020905b815481529060010190602001808311612ead57829003601f168201915b5050505050908060010160009054906101000a900473ffffffffffffffffffffffffffffffffffffffff16908060020154908060030154908060040160009054906101000a900460ff16905085565b6000600d60019054906101000a900473ffffffffffffffffffffffffffffffffffffffff169050600073ffffffffffffffffffffffffffffffffffffffff16600d60019054906101000a900473ffffffffffffffffffffffffffffffffffffffff1673ffffffffffffffffffffffffffffffffffffffff1614612fde578073ffffffffffffffffffffffffffffffffffffffff166108fc349081150290604051600060405180830381858888f19350505050158015612fdc573d6000803e3d6000fd5b505b6000600c8190555050565b60068181548110612ff657fe5b9060005260206000209060050201600091509050806000018054600181600116156101000203166002900480601f0160208091040260200160405190810160405280929190818152602001828054600181600116156101000203166002900480156130a25780601f10613077576101008083540402835291602001916130a2565b820191906000526020600020905b81548152906001019060200180831161308557829003601f168201915b5050505050908060010160009054906101000a900473ffffffffffffffffffffffffffffffffffffffff16908060020154908060030154908060040160009054906101000a900460ff16905085565b600a5481565b60011515600d60009054906101000a900460ff16151514156133f8576001826040518082805190602001908083835b602083106131495780518252602082019150602081019050602083039250613126565b6001836020036101000a038019825116818451168082178552505050505050905001915050908152602001604051809103902060010160009054906101000a900473ffffffffffffffffffffffffffffffffffffffff1673ffffffffffffffffffffffffffffffffffffffff163373ffffffffffffffffffffffffffffffffffffffff1614156132e7576000600b541415613259576001826040518082805190602001908083835b6020831061321457805182526020820191506020810190506020830392506131f1565b6001836020036101000a0380198251168184511680821785525050505050509050019150509081526020016040518091039020600301546009540160098190556132d4565b6001826040518082805190602001908083835b6020831061328f578051825260208201915060208101905060208303925061326c565b6001836020036101000a038019825116818451168082178552505050505050905001915050908152602001604051809103902060030154600b54600954010160098190555b50600954600b5401600b819055506133f7565b6000600a54141561336d576002826040518082805190602001908083835b602083106133285780518252602082019150602081019050602083039250613305565b6001836020036101000a0380198251168184511680821785525050505050509050019150509081526020016040518091039020600301546008540160088190556133e8565b6002826040518082805190602001908083835b602083106133a35780518252602082019150602081019050602083039250613380565b6001836020036101000a038019825116818451168082178552505050505050905001915050908152602001604051809103902060030154600a54600854010160088190555b50600854600a5401600a819055505b5b60001515600d60009054906101000a900460ff161515141561342b5780600a5403600a8190555080600b5403600b819055505b7fe75d396a479695bf8384579b621262055952455623ff38da02affb3a52455d8d600854600954600a54600b546040518085815260200184815260200183815260200182815260200194505050505060405180910390a15050565b6000603c828161349257fe5b06101580156134ac5750600f603c82816134a857fe5b0611155b6134cf576000600d60006101000a81548160ff02191690831515021790556134ea565b6001600d60006101000a81548160ff02191690831515021790555b507f2ce48d574716b9da341ca90f76959cf855a00a2dba4b7afcf851c3b74779ac92600d60009054906101000a900460ff16604051808215151515815260200191505060405180910390a150565b6002836040518082805190602001908083835b6020831061356e578051825260208201915060208101905060208303925061354b565b6001836020036101000a038019825116818451168082178552505050505050905001915050908152602001604051809103902060010160009054906101000a900473ffffffffffffffffffffffffffffffffffffffff1673ffffffffffffffffffffffffffffffffffffffff163373ffffffffffffffffffffffffffffffffffffffff1614156137f957600115156002846040518082805190602001908083835b60208310613632578051825260208201915060208101905060208303925061360f565b6001836020036101000a038019825116818451168082178552505050505050905001915050908152602001604051809103902060040160009054906101000a900460ff16151514156137795760006002846040518082805190602001908083835b602083106136b65780518252602082019150602081019050602083039250613693565b6001836020036101000a038019825116818451168082178552505050505050905001915050908152602001604051809103902060040160006101000a81548160ff021916908315150217905550806002846040518082805190602001908083835b6020831061373a5780518252602082019150602081019050602083039250613717565b6001836020036101000a0380198251168184511680821785525050505050509050019150509081526020016040518091039020600301819055506137f4565b806002846040518082805190602001908083835b602083106137b0578051825260208201915060208101905060208303925061378d565b6001836020036101000a0380198251168184511680821785525050505050509050019150509081526020016040518091039020600301600082825401925050819055505b61393e565b6040518060a001604052808481526020013373ffffffffffffffffffffffffffffffffffffffff168152602001838152602001828152602001600015158152506002846040518082805190602001908083835b6020831061386f578051825260208201915060208101905060208303925061384c565b6001836020036101000a038019825116818451168082178552505050505050905001915050908152602001604051809103902060008201518160000190805190602001906138be929190615e4e565b5060208201518160010160006101000a81548173ffffffffffffffffffffffffffffffffffffffff021916908373ffffffffffffffffffffffffffffffffffffffff160217905550604082015181600201556060820151816003015560808201518160040160006101000a81548160ff0219169083151502179055509050505b7f667aa1a64463572f80cfc0a916c17f3775c3f6a1412919fb4210771bb0f4b84d83338484600060405180806020018673ffffffffffffffffffffffffffffffffffffffff1673ffffffffffffffffffffffffffffffffffffffff16815260200185815260200184815260200183151515158152602001828103825287818151815260200191508051906020019080838360005b838110156139ed5780820151818401526020810190506139d2565b50505050905090810190601f168015613a1a5780820380516001836020036101000a031916815260200191505b50965050505050505060405180910390a1505050565b60058181548110613a3d57fe5b9060005260206000209060050201600091509050806000018054600181600116156101000203166002900480601f016020809104026020016040519081016040528092919081815260200182805460018160011615610100020316600290048015613ae95780601f10613abe57610100808354040283529160200191613ae9565b820191906000526020600020905b815481529060010190602001808311613acc57829003601f168201915b5050505050908060010160009054906101000a900473ffffffffffffffffffffffffffffffffffffffff16908060020154908060030154908060040160009054906101000a900460ff16905085565b60085481565b606060008090505b600480549050811015613da05760048181548110613b6057fe5b90600052602060002090600502016000018054600181600116156101000203166002900480601f016020809104026020016040519081016040528092919081815260200182805460018160011615610100020316600290048015613c055780601f10613bda57610100808354040283529160200191613c05565b820191906000526020600020905b815481529060010190602001808311613be857829003601f168201915b50505050509150846040516020018082805190602001908083835b60208310613c435780518252602082019150602081019050602083039250613c20565b6001836020036101000a03801982511681845116808217855250505050505090500191505060405160208183030381529060405280519060200120826040516020018082805190602001908083835b60208310613cb55780518252602082019150602081019050602083039250613c92565b6001836020036101000a038019825116818451168082178552505050505050905001915050604051602081830303815290604052805190602001201415613d93578260048281548110613d0457fe5b9060005260206000209060050201600301600082825401925050819055506000151560048281548110613d3357fe5b906000526020600020906005020160040160009054906101000a900460ff1615151415613d9257600160048281548110613d6957fe5b906000526020600020906005020160040160006101000a81548160ff0219169083151502179055505b5b8080600101915050613b46565b5060008090505b600360008581526020019081526020016000208054905081101561403457600360008581526020019081526020016000208181548110613de357fe5b90600052602060002090600502016000018054600181600116156101000203166002900480601f016020809104026020016040519081016040528092919081815260200182805460018160011615610100020316600290048015613e885780601f10613e5d57610100808354040283529160200191613e88565b820191906000526020600020905b815481529060010190602001808311613e6b57829003601f168201915b50505050509150846040516020018082805190602001908083835b60208310613ec65780518252602082019150602081019050602083039250613ea3565b6001836020036101000a03801982511681845116808217855250505050505090500191505060405160208183030381529060405280519060200120826040516020018082805190602001908083835b60208310613f385780518252602082019150602081019050602083039250613f15565b6001836020036101000a0380198251168184511680821785525050505050509050019150506040516020818303038152906040528051906020012014156140275782600360008681526020019081526020016000208281548110613f9857fe5b9060005260206000209060050201600301600082825401925050819055506000151560048281548110613fc757fe5b906000526020600020906005020160040160009054906101000a900460ff161515141561402657600160048281548110613ffd57fe5b906000526020600020906005020160040160006101000a81548160ff0219169083151502179055505b5b8080600101915050613da7565b507ffec26bbce9debb47f4dbda0d9aff7735293ab9900b60f03b291dd6804f6a39c96001604051808215151515815260200191505060405180910390a150505050565b60095481565b6004818154811061408a57fe5b9060005260206000209060050201600091509050806000018054600181600116156101000203166002900480601f0160208091040260200160405190810160405280929190818152602001828054600181600116156101000203166002900480156141365780601f1061410b57610100808354040283529160200191614136565b820191906000526020600020905b81548152906001019060200180831161411957829003601f168201915b5050505050908060010160009054906101000a900473ffffffffffffffffffffffffffffffffffffffff16908060020154908060030154908060040160009054906101000a900460ff16905085565b6007818154811061419257fe5b9060005260206000209060050201600091509050806000018054600181600116156101000203166002900480601f01602080910402602001604051908101604052809291908181526020018280546001816001161561010002031660029004801561423e5780601f106142135761010080835404028352916020019161423e565b820191906000526020600020905b81548152906001019060200180831161422157829003601f168201915b5050505050908060010160009054906101000a900473ffffffffffffffffffffffffffffffffffffffff16908060020154908060030154908060040160009054906101000a900460ff16905085565b600d60009054906101000a900460ff1681565b600360205281600052604060002081815481106142b957fe5b906000526020600020906005020160009150915050806000018054600181600116156101000203166002900480601f0160208091040260200160405190810160405280929190818152602001828054600181600116156101000203166002900480156143665780601f1061433b57610100808354040283529160200191614366565b820191906000526020600020905b81548152906001019060200180831161434957829003601f168201915b5050505050908060010160009054906101000a900473ffffffffffffffffffffffffffffffffffffffff16908060020154908060030154908060040160009054906101000a900460ff16905085565b6001836040518082805190602001908083835b602083106143eb57805182526020820191506020810190506020830392506143c8565b6001836020036101000a038019825116818451168082178552505050505050905001915050908152602001604051809103902060010160009054906101000a900473ffffffffffffffffffffffffffffffffffffffff1673ffffffffffffffffffffffffffffffffffffffff163373ffffffffffffffffffffffffffffffffffffffff16141561468057600015156001846040518082805190602001908083835b602083106144af578051825260208201915060208101905060208303925061448c565b6001836020036101000a038019825116818451168082178552505050505050905001915050908152602001604051809103902060040160009054906101000a900460ff16151514156145f557600180846040518082805190602001908083835b60208310614532578051825260208201915060208101905060208303925061450f565b6001836020036101000a038019825116818451168082178552505050505050905001915050908152602001604051809103902060040160006101000a81548160ff021916908315150217905550806001846040518082805190602001908083835b602083106145b65780518252602082019150602081019050602083039250614593565b6001836020036101000a038019825116818451168082178552505050505050905001915050908152602001604051809103902060030181905550614670565b806001846040518082805190602001908083835b6020831061462c5780518252602082019150602081019050602083039250614609565b6001836020036101000a0380198251168184511680821785525050505050509050019150509081526020016040518091039020600301600082825401925050819055505b61467b838383613b3e565b614a47565b6040518060a001604052808481526020013373ffffffffffffffffffffffffffffffffffffffff168152602001838152602001828152602001600115158152506001846040518082805190602001908083835b602083106146f657805182526020820191506020810190506020830392506146d3565b6001836020036101000a03801982511681845116808217855250505050505090500191505090815260200160405180910390206000820151816000019080519060200190614745929190615e4e565b5060208201518160010160006101000a81548173ffffffffffffffffffffffffffffffffffffffff021916908373ffffffffffffffffffffffffffffffffffffffff160217905550604082015181600201556060820151816003015560808201518160040160006101000a81548160ff02191690831515021790555090505060046040518060a001604052808581526020013373ffffffffffffffffffffffffffffffffffffffff1681526020018481526020018381526020016001151581525090806001815401808255809150509060018203906000526020600020906005020160009091929091909150600082015181600001908051906020019061484d929190615e4e565b5060208201518160010160006101000a81548173ffffffffffffffffffffffffffffffffffffffff021916908373ffffffffffffffffffffffffffffffffffffffff160217905550604082015181600201556060820151816003015560808201518160040160006101000a81548160ff021916908315150217905550505050600360008381526020019081526020016000206001846040518082805190602001908083835b6020831061491557805182526020820191506020810190506020830392506148f2565b6001836020036101000a0380198251168184511680821785525050505050509050019150509081526020016040518091039020908060018154018082558091505090600182039060005260206000209060050201600090919290919091506000820181600001908054600181600116156101000203166002900461499a929190615ece565b506001820160009054906101000a900473ffffffffffffffffffffffffffffffffffffffff168160010160006101000a81548173ffffffffffffffffffffffffffffffffffffffff021916908373ffffffffffffffffffffffffffffffffffffffff16021790555060028201548160020155600382015481600301556004820160009054906101000a900460ff168160040160006101000a81548160ff0219169083151502179055505050505b7ffc109caf254c9db039b010ed5ceb9d246c7e150921f9277fc5a6cdbe89aa33f483338484600160405180806020018673ffffffffffffffffffffffffffffffffffffffff1673ffffffffffffffffffffffffffffffffffffffff16815260200185815260200184815260200183151515158152602001828103825287818151815260200191508051906020019080838360005b83811015614af6578082015181840152602081019050614adb565b50505050905090810190601f168015614b235780820380516001836020036101000a031916815260200191505b50965050505050505060405180910390a1505050565b600181805160208101820180518482526020830160208501208183528095505050505050600091509050806000018054600181600116156101000203166002900480601f016020809104026020016040519081016040528092919081815260200182805460018160011615610100020316600290048015614bfb5780601f10614bd057610100808354040283529160200191614bfb565b820191906000526020600020905b815481529060010190602001808311614bde57829003601f168201915b5050505050908060010160009054906101000a900473ffffffffffffffffffffffffffffffffffffffff16908060020154908060030154908060040160009054906101000a900460ff16905085565b60011515600d60009054906101000a900460ff16151514614c6a57600080fd5b6009835110158015614c7e5750600c835111155b614c8757600080fd5b600082118015614c975750600482105b614ca057600080fd5b6001836040518082805190602001908083835b60208310614cd65780518252602082019150602081019050602083039250614cb3565b6001836020036101000a038019825116818451168082178552505050505050905001915050908152602001604051809103902060010160009054906101000a900473ffffffffffffffffffffffffffffffffffffffff1673ffffffffffffffffffffffffffffffffffffffff163373ffffffffffffffffffffffffffffffffffffffff161415614dfa57600015156001846040518082805190602001908083835b60208310614d9a5780518252602082019150602081019050602083039250614d77565b6001836020036101000a038019825116818451168082178552505050505050905001915050908152602001604051809103902060040160009054906101000a900460ff16151514614dea57600080fd5b614df5838383613538565b614e06565b614e05838383613538565b5b614e118360006130f7565b505050565b60006001836040518082805190602001908083835b60208310614e4e5780518252602082019150602081019050602083039250614e2b565b6001836020036101000a0380198251168184511680821785525050505050509050019150509081526020016040518091039020600201549050606060018314156152295760008090505b6004805490508110156151625760048181548110614eb257fe5b90600052602060002090600502016000018054600181600116156101000203166002900480601f016020809104026020016040519081016040528092919081815260200182805460018160011615610100020316600290048015614f575780601f10614f2c57610100808354040283529160200191614f57565b820191906000526020600020905b815481529060010190602001808311614f3a57829003601f168201915b50505050509150846040516020018082805190602001908083835b60208310614f955780518252602082019150602081019050602083039250614f72565b6001836020036101000a03801982511681845116808217855250505050505090500191505060405160208183030381529060405280519060200120826040516020018082805190602001908083835b602083106150075780518252602082019150602081019050602083039250614fe4565b6001836020036101000a038019825116818451168082178552505050505050905001915050604051602081830303815290604052805190602001201415615155576004600182018154811061505857fe5b90600052602060002090600502016004828154811061507357fe5b9060005260206000209060050201600082018160000190805460018160011615610100020316600290046150a8929190615ece565b506001820160009054906101000a900473ffffffffffffffffffffffffffffffffffffffff168160010160006101000a81548173ffffffffffffffffffffffffffffffffffffffff021916908373ffffffffffffffffffffffffffffffffffffffff16021790555060028201548160020155600382015481600301556004820160009054906101000a900460ff168160040160006101000a81548160ff0219169083151502179055509050505b8080600101915050614e98565b5060046001600480549050038154811061517857fe5b9060005260206000209060050201600080820160006151979190615f55565b6001820160006101000a81549073ffffffffffffffffffffffffffffffffffffffff0219169055600282016000905560038201600090556004820160006101000a81549060ff021916905550507f3cb78a277d950abe89d675a51f6dea3d1b8dc635be1cfe3ca2027367f6ad2b6283600160405180838152602001821515151581526020019250505060405180910390a15b600283141561562f5760008090505b60036000848152602001908152602001600020805490508110156155465760036000848152602001908152602001600020818154811061527457fe5b90600052602060002090600502016000018054600181600116156101000203166002900480601f0160208091040260200160405190810160405280929190818152602001828054600181600116156101000203166002900480156153195780601f106152ee57610100808354040283529160200191615319565b820191906000526020600020905b8154815290600101906020018083116152fc57829003601f168201915b50505050509150846040516020018082805190602001908083835b602083106153575780518252602082019150602081019050602083039250615334565b6001836020036101000a03801982511681845116808217855250505050505090500191505060405160208183030381529060405280519060200120826040516020018082805190602001908083835b602083106153c957805182526020820191506020810190506020830392506153a6565b6001836020036101000a0380198251168184511680821785525050505050509050019150506040516020818303038152906040528051906020012014156155395760036000848152602001908152602001600020600182018154811061542b57fe5b906000526020600020906005020160036000858152602001908152602001600020828154811061545757fe5b90600052602060002090600502016000820181600001908054600181600116156101000203166002900461548c929190615ece565b506001820160009054906101000a900473ffffffffffffffffffffffffffffffffffffffff168160010160006101000a81548173ffffffffffffffffffffffffffffffffffffffff021916908373ffffffffffffffffffffffffffffffffffffffff16021790555060028201548160020155600382015481600301556004820160009054906101000a900460ff168160040160006101000a81548160ff0219169083151502179055509050505b8080600101915050615238565b506003600083815260200190815260200160002060016003600085815260200190815260200160002080549050038154811061557e57fe5b90600052602060002090600502016000808201600061559d9190615f55565b6001820160006101000a81549073ffffffffffffffffffffffffffffffffffffffff0219169055600282016000905560038201600090556004820160006101000a81549060ff021916905550507f3cb78a277d950abe89d675a51f6dea3d1b8dc635be1cfe3ca2027367f6ad2b6283600160405180838152602001821515151581526020019250505060405180910390a15b50505050565b60011515600d60009054906101000a900460ff1615151461565557600080fd5b60098351101580156156695750600c835111155b61567257600080fd5b6000821180156156825750600482105b61568b57600080fd5b6000811161569857600080fd5b6002836040518082805190602001908083835b602083106156ce57805182526020820191506020810190506020830392506156ab565b6001836020036101000a038019825116818451168082178552505050505050905001915050908152602001604051809103902060010160009054906101000a900473ffffffffffffffffffffffffffffffffffffffff1673ffffffffffffffffffffffffffffffffffffffff163373ffffffffffffffffffffffffffffffffffffffff1614156157f257600115156002846040518082805190602001908083835b60208310615792578051825260208201915060208101905060208303925061576f565b6001836020036101000a038019825116818451168082178552505050505050905001915050908152602001604051809103902060040160009054906101000a900460ff161515146157e257600080fd5b6157ed8383836143b5565b6157fe565b6157fd8383836143b5565b5b6158098360006130f7565b505050565b60006001836040518082805190602001908083835b602083106158465780518252602082019150602081019050602083039250615823565b6001836020036101000a038019825116818451168082178552505050505050905001915050908152602001604051809103902060020154905060606001831415615b235760008090505b600480549050811015615add57600481815481106158aa57fe5b90600052602060002090600502016000018054600181600116156101000203166002900480601f01602080910402602001604051908101604052809291908181526020018280546001816001161561010002031660029004801561594f5780601f106159245761010080835404028352916020019161594f565b820191906000526020600020905b81548152906001019060200180831161593257829003601f168201915b50505050509150846040516020018082805190602001908083835b6020831061598d578051825260208201915060208101905060208303925061596a565b6001836020036101000a03801982511681845116808217855250505050505090500191505060405160208183030381529060405280519060200120826040516020018082805190602001908083835b602083106159ff57805182526020820191506020810190506020830392506159dc565b6001836020036101000a038019825116818451168082178552505050505050905001915050604051602081830303815290604052805190602001201415615ad0576001856040518082805190602001908083835b60208310615a765780518252602082019150602081019050602083039250615a53565b6001836020036101000a03801982511681845116808217855250505050505090500191505090815260200160405180910390206003015460048281548110615aba57fe5b9060005260206000209060050201600301819055505b8080600101915050615890565b507f6806751c8cd46f3dca2d00384d611c69ab97013c98bbdcde7dd7d56b27c962b183600160405180838152602001821515151581526020019250505060405180910390a15b6002831415615e015760008090505b6003600084815260200190815260200160002080549050811015615dbb57600360008481526020019081526020016000208181548110615b6e57fe5b90600052602060002090600502016000018054600181600116156101000203166002900480601f016020809104026020016040519081016040528092919081815260200182805460018160011615610100020316600290048015615c135780601f10615be857610100808354040283529160200191615c13565b820191906000526020600020905b815481529060010190602001808311615bf657829003601f168201915b50505050509150846040516020018082805190602001908083835b60208310615c515780518252602082019150602081019050602083039250615c2e565b6001836020036101000a03801982511681845116808217855250505050505090500191505060405160208183030381529060405280519060200120826040516020018082805190602001908083835b60208310615cc35780518252602082019150602081019050602083039250615ca0565b6001836020036101000a038019825116818451168082178552505050505050905001915050604051602081830303815290604052805190602001201415615dae576001856040518082805190602001908083835b60208310615d3a5780518252602082019150602081019050602083039250615d17565b6001836020036101000a038019825116818451168082178552505050505050905001915050908152602001604051809103902060030154600360008581526020019081526020016000208281548110615d8f57fe5b9060005260206000209060050201600301600082825403925050819055505b8080600101915050615b32565b507f6806751c8cd46f3dca2d00384d611c69ab97013c98bbdcde7dd7d56b27c962b183600060405180838152602001821515151581526020019250505060405180910390a15b50505050565b6040518060a0016040528060608152602001600073ffffffffffffffffffffffffffffffffffffffff16815260200160008152602001600081526020016000151581525090565b828054600181600116156101000203166002900490600052602060002090601f016020900481019282601f10615e8f57805160ff1916838001178555615ebd565b82800160010185558215615ebd579182015b82811115615ebc578251825591602001919060010190615ea1565b5b509050615eca9190615f9d565b5090565b828054600181600116156101000203166002900490600052602060002090601f016020900481019282601f10615f075780548555615f44565b82800160010185558215615f4457600052602060002091601f016020900482015b82811115615f43578254825591600101919060010190615f28565b5b509050615f519190615f9d565b5090565b50805460018160011615610100020316600290046000825580601f10615f7b5750615f9a565b601f016020900490600052602060002090810190615f999190615f9d565b5b50565b615fbf91905b80821115615fbb576000816000905550600101615fa3565b5090565b9056fea265627a7a72315820bf0975c4d10923e62b9e198c14e471256d57015145f5f815d62470c86227416564736f6c63430005100032",
  "source": "pragma solidity ^0.5.16;\n// pragma experimental ABIEncoderV2;\n\ncontract ExchangePlatform\n{\n//Name of the smart contract \nstring public name;\n\n//Mappings \nmapping(string => Seller) public sellersMap;        //seller smart id is key and seller object is value\nmapping(string => Buyer) public buyersMap;         //buyer smart id is key and buyer object is value\nmapping(uint => Seller[]) public gridMap;         //grid number is key and grid array is value\n\n//Arrays\nSeller[] public sellersArr;   //Array of sellers\nSeller[] public grid1;       //Array of sellers in microgrid 1\nSeller[] public grid2;      //Array of sellers in microgrid 2\nSeller[] public grid3;     //Array of sellers in microgrid 3\n\n//Global variables\nuint public TED = 0;\nuint public TES = 0; \nuint public demand = 0;\nuint public supply = 0;\nuint public pay = 0; \nbool public allow = false; \naddress payable seller = 0x0000000000000000000000000000000000000000; \n\n//Seller object\nstruct Seller{\n    string smartId;           //SamrtId of the seller\n    address payable owner;   //Wallet Address of the seller\n    uint microgrid;         //Microgrid number\n    uint energyAmount;     //Energy to be sold\n    bool sellStatus;     //seller available for selling if true     \n}\n\n//Buyer object\nstruct Buyer{\n    string smartId;            //SamrtId of the buyer\n    address payable owner;    //Wallet Address of the buyer\n    uint microgrid;          //Microgrid number\n    uint energyReq;         //Energy required by buyer\n    bool receiveStatus;    //Buyer can buy if false\n}\n\nconstructor() public {\n    name = \"Energy trading Platform\"; //Name of the contract\n\n    //Mapping of the microgrid arrays\n    gridMap[1] = grid1; \n    gridMap[2] = grid2;\n    gridMap[3] = grid3;\n}\n\n//Events: \n\nevent Time( \n    bool allow\n);\n\nevent Updated(\n    uint TED,\n    uint TES, \n    uint demand, \n    uint supply\n);\n\nevent SellerChecked(\n    string smartId,\n    address payable owner,\n    uint microgrid,\n    uint energyAmount,\n    bool sellStatus\n);\n\nevent ArrayUpdated(\n    bool updated\n);\n\n//Event for creation of seller\nevent SellerCreated(\n    bool created\n);\n\n//Event for creation of buyer\nevent BuyerCreated(\n    string smartId,\n    address payable owner,  \n    uint microgrid, \n    uint energyReq, \n    bool receiveStatus\n);\n\nevent BuyerChecked(\n    string smartId,\n    address payable owner,  \n    uint microgrid, \n    uint energyReq, \n    bool receiveStatus\n);\n\nevent RequestCompleted(\n    string smartId,\n    address payable owner,  \n    uint microgrid, \n    uint energyReq, \n    bool receiveStatus\n);\n\nevent PriceCalculated(\n   uint price\n);\n\nevent EPVcalculated(\n   uint EPV\n);\n\nevent SellerUpdated(\n    uint sup,\n    bool done\n);\n\nevent SellerRemoved(\n    uint rm,\n    bool done\n);\n//Checks the time and sets global variable allow\nfunction checkTime(uint _time) public {\n    _time % 60 >= 0 && _time % 60 <= 15 ? allow = true : allow = false;\n    emit Time(allow); \n}\n\n//Updates the TED, TES, demand and supply \nfunction update(string memory _smartId, uint _energyDealt) public {\n   \n   //Time of registration \n   if(allow == true){   \n       //Checks sender for seller\n       if(msg.sender == sellersMap[_smartId].owner){\n        //Previous cycle's energy supply added to new cycle\n        supply != 0 ? TES = TES + supply + sellersMap[_smartId].energyAmount : TES = TES + sellersMap[_smartId].energyAmount;\n        //Current cycle's supply updated\n        supply = supply + TES;\n       }\n       \n       //Sender is buyer \n       else{\n        //Previous cycle's energy deamn is added to new cycle\n        demand != 0 ? TED = TED + demand + buyersMap[_smartId].energyReq : TED = TED + buyersMap[_smartId].energyReq;\n        //Current cycle's demand updated\n        demand = demand + TED; \n       }\n   }\n\n   //Time of transaction \n   if(allow == false){\n      //Energy sold subtracted from Current cycle's demand and supply\n      demand = demand - _energyDealt;\n      supply = supply - _energyDealt;\n   }\n   \n   emit Updated(TED, TES, demand, supply);\n}\n\n//Registeration of seller\nfunction registerSeller(string memory _smartId, uint _microgrid, uint _energyAmount) public {\n    \n    //Checks validity of seller\n    require(allow == true); //Registeration only for the first 15 mins of an hour \n    require(bytes(_smartId).length >=9 && bytes(_smartId).length <=12); //SmartId validity\n    require(_microgrid > 0 && _microgrid < 4); //Microgrid validity\n    require(_energyAmount > 0);  //Energy amount validity\n\n    //Seller cannot be buyer in the same cycle\n    //Seller was buyer in previous cycle\n    if(msg.sender == buyersMap[_smartId].owner){\n        //Check if still a buyer\n        require(buyersMap[_smartId].receiveStatus == true); \n        //Create new seller of modify existing\n        checkSeller(_smartId, _microgrid, _energyAmount);\n    }\n    \n    //Seller was not buyer in previous cycle\n    else{\n        //Create new seller of modify existing\n        checkSeller(_smartId, _microgrid, _energyAmount);\n    }\n\n    //Update the TED, TES, demand and supply\n    update(_smartId,0);\n    \n    //Trigger the event of seller creation \n    //emit SellerCreated(true);\n}\n\nfunction checkSeller(string memory _smartId, uint _microgrid, uint _energyAmount) public{\n\n  //Seller already exists  \n  if(msg.sender == sellersMap[_smartId].owner){\n    //Not an active seller\n     if(sellersMap[_smartId].sellStatus == false){\n        sellersMap[_smartId].sellStatus = true; //Turn sellStatus true\n        sellersMap[_smartId].energyAmount = _energyAmount; //Update new energy amount\n      }\n\n     //sellStatus is true\n     else{\n        sellersMap[_smartId].energyAmount += _energyAmount; //Add to the energy Amount \n      }       \n\n      updateArr(_smartId, _microgrid, _energyAmount); //Update the sellers array and microgrid\n    } \n\n   //Seller does not exist \n   else{\n     //Create new seller and add to map and microgrid\n     sellersMap[_smartId] =  Seller(_smartId, msg.sender, _microgrid, _energyAmount, true); //Maps the seller's smartId to the seller object\n     sellersArr.push( Seller(_smartId, msg.sender, _microgrid, _energyAmount, true));  //Adds the seller object to the array of sellers \n     gridMap[_microgrid].push(sellersMap[_smartId]); \n    }\n\n    emit SellerChecked(_smartId, msg.sender, _microgrid, _energyAmount, true);\n}\n\n\nfunction updateArr(string memory _smartId, uint _grid, uint _energyAmount) public {\n\n    //Update Sellersarr  \n    string memory _id;\n    for(uint i = 0; i < sellersArr.length; i++){\n        _id = sellersArr[i].smartId;\n        if(keccak256(abi.encodePacked(_id)) == keccak256(abi.encodePacked(_smartId))){\n            sellersArr[i].energyAmount += _energyAmount;\n            \n            if(sellersArr[i].sellStatus == false ){\n               sellersArr[i].sellStatus = true;\n            }  \n        } \n    }\n    \n    //Update the microgrid\n    for(uint i = 0; i < gridMap[_grid].length; i++){\n        _id = gridMap[_grid][i].smartId;\n        if(keccak256(abi.encodePacked(_id)) == keccak256(abi.encodePacked(_smartId))){\n            gridMap[_grid][i].energyAmount += _energyAmount;\n            if(sellersArr[i].sellStatus == false ){\n               sellersArr[i].sellStatus = true;\n            }  \n        } \n     }\n    \n    emit ArrayUpdated(true);\n}\n\n//Registeration of Buyer \nfunction registerBuyer(string memory _smartId, uint _microgrid, uint _energyReq) public {\n\n    require(allow == true);\n    require(bytes(_smartId).length >=9 && bytes(_smartId).length <=12);\n    require(_microgrid > 0 && _microgrid < 4);\n\n     //Buyer can not be seller in the same cycle\n     //Buyer was seller in previous cycle\n     if(msg.sender == sellersMap[_smartId].owner){\n        //Buyer is not seller in current cycle\n        require(sellersMap[_smartId].sellStatus == false);\n        //Create new buyer or update existing \n        checkBuyer(_smartId, _microgrid, _energyReq);\n    }    \n\n    else{\n        //Create new buyer or update existing \n        checkBuyer(_smartId, _microgrid, _energyReq);\n    }\n    \n    //Update the TED, TES, demand and supply\n    update(_smartId,0);\n\n    //Triggers event of buyer creation \n    //emit BuyerCreated(_smartId, msg.sender, _microgrid, _energyReq, false);\n}\n\nfunction checkBuyer(string memory _smartId, uint _microgrid, uint _energyReq) public {\n    //Buyer already exists\n    if(msg.sender == buyersMap[_smartId].owner){\n       //Buyer's request of previous cycle fulfilled\n       if(buyersMap[_smartId].receiveStatus == true){\n          buyersMap[_smartId].receiveStatus = false; //Can recieve energy \n          buyersMap[_smartId].energyReq = _energyReq; //Update the energy required \n        }\n        \n        //Buyer's request of previous cycle was not fullfilled\n        else{\n          buyersMap[_smartId].energyReq += _energyReq; //Update the energy required\n        }  \n\n        // emit BuyerChecked(true);\n    } \n    \n    //Buyer does not exist \n    else{\n        //Create new buyer\n        buyersMap[_smartId] =  Buyer(_smartId, msg.sender, _microgrid, _energyReq, false); //Maps the seller's smartId to the seller object\n        // emit BuyerChecked(false);\n    }    \n\n    emit BuyerChecked(_smartId, msg.sender, _microgrid, _energyReq, false);\n}\n\n//Buy request \nfunction buyRequest(string memory _smartId, uint _energyNeed) public payable{\n\n    require(allow == false); //Transaction time \n    require(msg.sender == buyersMap[_smartId].owner); //Buy request needs to be sent by buyer\n\n    Buyer memory _buyer = buyersMap[_smartId]; //fetch the buyer\n  \n    uint _cost = 0; \n    uint _EPV = 0;\n    uint _energyRec = 0;\n    bool _handled = false;\n\n    //Calculating price for each seller\n    _EPV = basePriceCalculation();\n\n    for(uint i = 0; i<gridMap[_buyer.microgrid].length; i++){\n       if(_handled == false){\n        //Energy present satisfies energy need \n        if(gridMap[_buyer.microgrid][i].energyAmount >= _energyNeed){\n             //Seller should be available for selling\n             if(gridMap[_buyer.microgrid][i].sellStatus == true){\n                  _cost = _energyNeed * _EPV * 10970000000000;  //Calcualte the cost \n                //    require(msg.sender.balance >= _cost, 'Not enough ether'); //Check the balance of buyer\n                   gridMap[_buyer.microgrid][i].energyAmount -= _energyNeed;//Update the seller energy amount in grid map \n\n                     //All energy sold \n                     if(gridMap[_buyer.microgrid][i].energyAmount == 0){\n                        gridMap[_buyer.microgrid][i].sellStatus = false; // Cannot sell anymore \n                        //Update in sellers map\n                        sellersMap[gridMap[_buyer.microgrid][i].smartId].sellStatus = false; \n                        sellersMap[gridMap[_buyer.microgrid][i].smartId].energyAmount = 0;\n                        removeSeller(gridMap[_buyer.microgrid][i].smartId, 1);//Remove seller from  sellers array\n                    }\n\n                    //Some energy left with seller\n                    else{\n                       sellersMap[gridMap[_buyer.microgrid][i].smartId].energyAmount -= _energyNeed; //Update in the map \n                       updateSeller(gridMap[_buyer.microgrid][i].smartId, 1);  //Update the sellers array \n                    }\n             \n                    _energyRec = _energyNeed;\n                    seller = gridMap[_buyer.microgrid][i].owner;\n                    _handled = true;\n            }   \n\n            else{\n                _handled == false;\n             }\n        }\n\n        //Energy present does not satisfy the need \n        else{\n            //Seller should be available for selling  \n            if(gridMap[_buyer.microgrid][i].sellStatus == true){\n                _cost = gridMap[_buyer.microgrid][i].energyAmount * _EPV * 10970000000000;  //Calculate the cost\n               _energyRec = _energyNeed - gridMap[_buyer.microgrid][i].energyAmount; //Update the energy recieved  \n               gridMap[_buyer.microgrid][i].energyAmount = 0; //Complete energy of seller used \n               gridMap[_buyer.microgrid][i].sellStatus = false; //Cannot sell anymore \n\n              //Update in sellers Map \n              sellersMap[gridMap[_buyer.microgrid][i].smartId].sellStatus = false; \n              sellersMap[gridMap[_buyer.microgrid][i].smartId].energyAmount = 0;\n\n              updateSeller(gridMap[_buyer.microgrid][i].smartId, 1);  //Update in sellers array \n              _handled = true; \n              seller = gridMap[_buyer.microgrid][i].owner;\n            } \n\n            else{\n                _handled = false;\n            }\n        }\n    }\n} \n         \n    //Energy need not fullfilled by same microgrid  \n    \n      //Search the seller's array\n      for(uint i = 0; i <= sellersArr.length; i++){\n        if(_handled == false){\n                 //The microgrid cannot be same \n        if(sellersArr[i].microgrid != _buyer.microgrid){\n              //Seller satisfies energy need \n            if(sellersArr[i].energyAmount >= _energyNeed){\n                //Seller should be available for selling \n               if(sellersArr[i].sellStatus == true){\n                  _cost = 2 * _energyNeed * _EPV * 10970000000000 ; //Calcualte the cost \n                  sellersArr[i].energyAmount -= _energyNeed;   //update the energy amount in sellers array \n                //All energy sold \n                  if(sellersArr[i].energyAmount == 0){\n                     sellersArr[i].sellStatus = false; // Cannot sell anymore \n                     //Update in sellers map\n                     sellersMap[sellersArr[i].smartId].sellStatus = false; \n                     sellersMap[sellersArr[i].smartId].energyAmount = 0;\n                     //Remove seller from  grid array\n                     removeSeller(sellersArr[i].smartId, 2);\n                  }\n\n                  //Some energy left with seller\n                  else{\n                     sellersMap[sellersArr[i].smartId].energyAmount -= _energyNeed; //Update in the sellers map \n                     updateSeller(sellersArr[i].smartId, 2); //Update the grid array \n                  }\n                  _energyRec = _energyNeed;\n                  seller = sellersArr[i].owner;\n                  _handled = true; \n               }\n\n                else{\n                    _handled = false;\n               }\n           } \n\n            else { \n                //Seller should be available for selling \n                if(sellersArr[i].sellStatus == true){\n                    _cost = 2 * sellersArr[i].energyAmount * _EPV * 10970000000000;  //Calculate the cost\n                    _energyRec = _energyNeed - sellersArr[i].energyAmount; //Update the energy need  \n                    sellersArr[i].energyAmount = 0; //Complete energy of seller used \n                    sellersArr[i].sellStatus = false; //Cannot sell anymore \n\n                    //Update in sellers Map \n                    sellersMap[sellersArr[i].smartId].sellStatus = false; \n                    sellersMap[sellersArr[i].smartId].energyAmount = 0;\n\n                    updateSeller(sellersArr[i].smartId, 2); //Update in grid array  \n                    seller = sellersArr[i].owner;\n                    _handled = true;\n                  }\n                \n                  else{\n                      _handled = false;\n                  }\n               }\n           }\n        }\n    }\n    \n    //Update buyer\n    buyersMap[_smartId].energyReq = _energyNeed - _energyRec; \n    buyersMap[_smartId].energyReq == 0 ? buyersMap[_smartId].receiveStatus = true : buyersMap[_smartId].receiveStatus = false;\n    \n    //Update the TED, TES, demand and supply\n    update(_smartId, _energyRec);\n    //Update pay \n    pay = _cost;\n    emit RequestCompleted(_buyer.smartId, msg.sender, _buyer.microgrid, buyersMap[_smartId].energyReq, buyersMap[_buyer.smartId].receiveStatus);\n}  \n\n\n\nfunction payment() public payable{\n      address payable _seller = seller;\n      if(seller != 0x0000000000000000000000000000000000000000){\n          _seller.transfer(msg.value);\n      }    \n\n      pay = 0; \n}\n\nfunction basePriceCalculation() public returns (uint){\n\n    uint _GDR = 0; \n    uint _EPV = 0; \n    uint _EPU = 6;\n\n    _GDR = TES/TED;\n\n    if(_GDR >= 1){\n\n        _EPV = _EPU/_GDR;\n\n        if(_EPV == 0){\n           _EPV = 1;\n        }      \n    }\n\n    else{\n        _EPV = _EPU; \n    }\n    \n    emit EPVcalculated(_EPV);\n    return _EPV;\n}\n\nfunction updateSeller(string memory _smartId, uint _x) public {\n\n    uint _grid = sellersMap[_smartId].microgrid; \n    string memory _id; \n    \n    if(_x == 1){\n     for(uint i = 0; i < sellersArr.length; i++){\n        _id = sellersArr[i].smartId;\n        if(keccak256(abi.encodePacked(_id)) == keccak256(abi.encodePacked(_smartId))){\n           sellersArr[i].energyAmount = sellersMap[_smartId].energyAmount;\n        }\n      }\n      emit SellerUpdated(_x, true);\n    }\n    \n    if(_x == 2){\n      for(uint i = 0; i < gridMap[_grid].length; i++){\n        _id = gridMap[_grid][i].smartId;\n        if(keccak256(abi.encodePacked(_id)) == keccak256(abi.encodePacked(_smartId))){\n           gridMap[_grid][i].energyAmount -= sellersMap[_smartId].energyAmount;\n        }\n      }\n      emit SellerUpdated(_x, false);\n    }  \n}\n\nfunction removeSeller(string memory _smartId, uint _x) public {\n    \n    uint _grid = sellersMap[_smartId].microgrid;\n    string memory _id;\n    \n    if(_x == 1){\n      for(uint i = 0; i < sellersArr.length; i++){\n        _id = sellersArr[i].smartId;\n        if(keccak256(abi.encodePacked(_id)) == keccak256(abi.encodePacked(_smartId))){\n            sellersArr[i] = sellersArr[i+1];\n        } \n      }\n      delete sellersArr[sellersArr.length - 1];\n     emit SellerRemoved(_x, true);\n    }\n\n    if(_x == 2){\n     for(uint i = 0; i < gridMap[_grid].length; i++){\n        _id = gridMap[_grid][i].smartId; \n        if(keccak256(abi.encodePacked(_id)) == keccak256(abi.encodePacked(_smartId))){\n            gridMap[_grid][i] = gridMap[_grid][i+1];\n        } \n      }\n      delete gridMap[_grid][gridMap[_grid].length - 1]; \n      emit SellerRemoved(_x, true);\n    }\n  }\n}",
  "sourcePath": "/Users/pranavchachra/Desktop/Everything/Resume/Projects for Resume/Energy-Exchange-Platform-For-P2P-Trading-Based-on-Blockchain-main/src/contracts/ExchangePlatform.sol",
  "compiler": {
    "name": "solc",
    "version": "0.5.16+commit.9c3226ce.Emscripten.clang"
  },
  "schemaVersion": "3.4.13",
  "updatedAt": "2023-04-01T16:41:47.482Z",
  "networkType": "ethereum",
  "devdoc": {
    "methods": {}
  },
  "userdoc": {
    "methods": {}
  }
}